:0C00000065C0FECFFDCFFCCFFBCFFACFD8
:10000C00F9CFF8CFF7CFF6CFF5CFF4CFF3CF14C1AC
:10001C00F1CFF0CFEFCFEECF8CC0ECCFC7C0EACF93
:10002C00E9CFE8CFE7CFE6CF414253454E5420000D
:10003C0050524553454E540057454C434F4D452067
:10004C00544F204344414300415454454E44414E87
:10005C0043452056312E30002020424C5545544FFC
:10006C004F54482020002020415454454E44414ECA
:10007C00434520200052616D0052616A0056656450
:10008C000053616D004F6D0010008801440010009A
:10009C00980154000E00A80164000F00B601720014
:1000AC000400C50181000400C90185000400CD01D4
:1000BC0089000400D1018D000300D50191000000DE
:1000CC00F894EE27EFBBE5BFF8E1A895A4B7A77F9E
:1000DC00A4BFF0936000E09360008DE0A2E0BB272A
:1000EC00ED938A95E9F780E092E0A0E0B1E0ED9322
:1000FC000197E9F7E4E9F0E085919591009761F0BB
:10010C00A591B59105901590BF01F00105900D9248
:10011C000197E1F7FB01F0CFE0E0EEBBE0E0EABDD8
:10012C00E0E0EBBDEFEFEDBFE2E0EEBFC0E8D1E009
:10013C009DC0AA93BA93EA93EFB7EA9327D20091A2
:10014C00C0001091C600E02FEC7109F012C0AA2D6E
:10015C00B0E0A852BE4F1C93A394E8E0EA1509F056
:10016C0001C0AA24C394E8E0EC1509F002C0CC2429
:10017C00F09A14D2E991EFBFE991B991A991189530
:10018C000A93CC2009F001C0FCCFEB2D94D1E8529E
:10019C00FE4F0081B394E8E0EB1509F001C0BB24DD
:1001AC00F894CA947894E02F09910895EA93FA93FD
:1001BC00EFB7EA9382D1E03009F411C07ED1E1505F
:1001CC00E093E801EE2D77D1E052FE4FE081E09311
:1001DC00C600E394E8E0EE1509F001C0EE24E991C5
:1001EC00EFBFF991E9911895A091E801A83009F0B9
:1001FC0001C0FACFF89461D1E03009F006C0E0916B
:10020C00C000E07209F401C011C0ED2D54D1E052D0
:10021C00FE4FA881A083D394E8E0ED1509F001C04E
:10022C00DD244BD1EF5FE093E80103C0E881E0935C
:10023C00C600789421960895AA93EA93FA93EFB79F
:10024C00EA933ED133942394E32D41D109F002C0BB
:10025C00332442D1E22D3BD109F002C022243CD1FF
:10026C00E991EFBFF991E991A9911895609780E117
:10027C00A0E0B0E0E4E3F0E094D1E0E8E0936100CA
:10028C00E0E0E0936100E5B9E7E0E4B9E0E0E8B96B
:10029C00E7B9E4E0EBB9E0EFEAB9E0E0E4BDE5BDD5
:1002AC00E6BDE7BDE8BDE0938000E5E0E0938100AA
:1002BC0007D1E0E0E0938700E0938600E0938900AB
:1002CC00E0938800E0938B00E0938A00E093B60003
:1002DC00E093B000E093B100E093B200E093B30080
:1002EC00E093B400E0936E00FCD0E0E0E09370008B
:1002FC00E093C000E8EDE093C100E6E0E093C200BB
:10030C00E0E0E093C500E9E1E093C400789469D0A3
:10031C00EBD0E8E8F1E0ECD0EED0E8E9F1E0E8D0A1
:10032C00E8EBFBE0EBD0E0D0E0E0EC1508F02AC005
:10033C0027DF9E2E9A9258DFE0E4E91509F006C0FB
:10034C009924E1E04E2E3324BBD0DBD0E3E2E91557
:10035C0009F006C09924E1E05E2E2224B1D0D1D060
:10036C00E4E2E91509F005C0E1E06E2E3324C9D0B2
:10037C00A7D0EAE2E91509F005C0E1E07E2E3324AE
:10038C00C0D09ED08824E1E0E41509F007C0BBD0B2
:10039C00C0D0C4D0FE013896ABD005C0B4D0B9D013
:1003AC00BDD0FE01A5D0E1E0E51509F00AC0A3D04F
:1003BC00EDECF1E09DD0ADD0B1D0FE01389698D0E7
:1003CC0008C099D0EDECF1E093D0A3D0A7D0FE01FA
:1003DC008FD0AACF6096FFCFE1E0A6D0E6E0A4D004
:1003EC000895EFE0F0E08AD0E3E09ED0E5E0F0E0A5
:1003FC0085D0E3E099D09AD0E3E096D097D0E2E0B4
:10040C0093D094D0E8E290D0E4E6F0E077D0E0E648
:10041C008BD0E4E6F0E072D0ECE086D08BD0E6E056
:10042C0083D088D0E0E980D085D0E1E07DD0E2E0D7
:10043C00F0E064D00895AAD000E010E0EA81EF70FB
:10044C000E2FEA81E295EF701E2F1F700F70129520
:10045C00107F0295007F84EF91E00197F1F72898C7
:10046C006CD099D0239608958FD03C8320E000E087
:10047C0010E0ED81E07F1E2FED81E295E07F0E2FE5
:10048C0088E592E00197F1F7289A57D082D026960A
:10049C000895A881B981EC91E03009F40AC0EA937F
:1004AC00E1E0EA93E1DFA881B981ED91A883B983FA
:1004BC00F0CF22960895F0E00895E091E8010895B8
:1004CC00EEEFE0938500E9E7E09384000895F3DF15
:1004DC00E032A3E0FA0708954424552466247724D7
:1004EC000895E0936F00089577DFE0E8EA93A3CFD7
:1004FC00FA93EA93CECFE0ECEA939DCFFA93EA938A
:10050C0037C0E1E0EECFE0E8EA9395DFE5ECF1E00F
:10051C00EFCFE0E2EA93E0E0EA93A6CFEAE3EA93D6
:10052C00E0E0EA93A1DFF5CFEA9385CF85ED8A95DC
:10053C00F1F70895E1E0F0E0E1CF29982A9AEBB1C8
:10054C00EF70EBB9EBB1E12BEBB987E08A95F1F7E2
:10055C002A9887E08A95F1F72A9AEBB1EF70EBB9FC
:10056C00EBB1E02BEBB987E08A95F1F72A98089567
:10057C00E991F991309639F088EE93E00197F1F713
:10058C00A8953197C9F708953A932A931A930A9329
:10059C0008953B812A811981088108950991199147
:1005AC000895AC0FBD1F05900D928A95E1F7089543
:00000001FF
